:020000040800F2
:1000000018350120D5080008F1030008F3030008A3
:10001000F7030008FB030008FF03000800000000CE
:10002000000000000000000000000000290200089D
:100030000304000800000000850200081D4C0008B1
:10004000EF080008EF080008EF080008EF080008B4
:10005000EF080008EF080008EF080008EF080008A4
:10006000EF080008EF080008EF080008EF08000894
:10007000EF080008EF080008EF080008EF08000884
:10008000EF080008EF080008EF080008EF08000874
:10009000EF080008EF080008EF080008EF08000864
:1000A000EF080008EF080008EF080008EF08000854
:1000B000EF080008EF080008EF080008EF08000844
:1000C000EF080008EF080008EF080008EF08000834
:1000D000EF0800084B080008EF080008EF080008C8
:1000E000EF080008EF080008EF080008EF08000814
:1000F000EF080008EF080008EF080008EF08000804
:10010000EF080008EF080008EF080008EF080008F3
:10011000EF080008EF080008EF080008EF080008E3
:10012000EF080008EF080008EF080008EF080008D3
:10013000EF080008EF080008EF080008EF080008C3
:10014000EF080008EF080008EF080008EF080008B3
:10015000EF080008EF080008EF080008EF080008A3
:10016000EF080008EF080008EF080008EF08000893
:10017000EF080008EF080008EF080008EF08000883
:10018000EF080008EF08000800F002F800F03CF863
:100190000AA090E8000C82448344AAF10107DA45E2
:1001A00001D100F031F8AFF2090EBAE80F0013F0F8
:1001B000010F18BFFB1A43F0010318476C500000F1
:1001C0008C500000103A24BF78C878C1FAD8520782
:1001D00024BF30C830C144BF04680C6070470000C1
:1001E0000023002400250026103A28BF78C1FBD840
:1001F000520728BF30C148BF0B6070471FB505F0DC
:100200000DF81FBD10B510BD04F0D5FF1146FFF766
:10021000F5FF00F0B6F804F0F3FF03B4FFF7F2FFC8
:1002200003BC00F0AFFA00002C4B19680868B0E876
:10023000F04F80F30988BFF36F8F4FF0000080F319
:10024000118870470000000008480068006880F3CB
:1002500008884FF0000080F3148862B661B6BFF3DF
:100260004F8FBFF36F8F00DF00BF00BF08ED00E0CE
:10027000DFF80C00016841F470010160704700BFB5
:1002800088ED00E0EFF30980BFF36F8F134B1A681E
:100290001EF0100F08BF20ED108A20E9F04F10600B
:1002A00009B44FF0500080F31188BFF34F8FBFF3B4
:1002B0006F8F02F0FFFE4FF0000080F3118809BC41
:1002C00019680868B0E8F04F1EF0100F08BFB0ECD6
:1002D000108A80F30988BFF36F8F704740000020B9
:1002E000EFF305807047000003E040F2145002F085
:1002F000A3FDFAE703E04FF4966002F09DFDFAE7F4
:1003000003E040F24C4002F097FDFAE70DE00120D7
:1003100000F09CF94FF4FA7002F08EFD022000F01C
:1003200095F94FF4FA7002F087FDF0E71CB51C4810
:10033000012100234A02CDE900101AA11C4802F055
:10034000FDFA1C48022100230A02CDE900101AA17F
:100350001C4802F0F3FA1C48032100234FF40072FA
:10036000CDE9001019A11C4802F0E8FA1B4804214D
:100370000023CA01CDE9001019A11C4802F0DEFAE1
:100380001CBD012080F3108800BFA82000F078F980
:1003900000F040F9FFF7CAFF03F01FF800BFFEE7C7
:1003A00000000020765461736B55736572494600F6
:1003B0000D03000804000020765461736B4C454423
:1003C000000000000103000808000020765461735B
:1003D0006B4D736750726F00F50200080C0000202F
:1003E000765461736B53746172740000E902000803
:1003F000704700BFFEE700BFFEE700BFFEE700BF9B
:10040000FEE770470CB50020019000907648006828
:1004100040F480307449086000BF7348006800F4FD
:10042000003000900198401C0190009818B9019884
:10043000B0F5A04FF1D16C48006800F4003010B165
:100440000120009001E0002000900098012846D192
:1004500065484030006840F0805063494031086092
:100460006248006840F44040604908605E480830D7
:1004700000685D49083108600846006840F40040A3
:1004800008600846006840F4A05008605848091FFA
:100490000860081F006840F08070091F086000BFF6
:1004A0005148006800F000700028F9D040F2057053
:1004B000504908604C480830006820F003004A4961
:1004C000083108600846006840F00200086000BF7C
:1004D00045480830006800F00C000828F8D10CBD31
:1004E00010B54548006840F47000434908603E4834
:1004F000006840F001003C49086000203A4908319A
:100500000860394800683D490840374908603C4860
:10051000091D0860081F006820F48020091F08607A
:10052000002031490C310860FFF76CFF4FF000608C
:1005300031498039086010BD70B5002000220223C7
:1005400000240221284D08352D6805F00C0020B14B
:10055000042806D0082834D107E02A4D2A4E3560F9
:1005600033E02A4D284E35602FE01F4D2D1D2D689C
:10057000C5F380541C4D2D1D2D6805F03F0154B16D
:10058000224DB5FBF1F5184E361D3668C6F38816B8
:1005900005FB06F209E01B4DB5FBF1F5124E361DC9
:1005A0003668C6F3881605FB06F20F4D2D1D2D6823
:1005B000C5F301456D1C6B00B2FBF3F5124E3560BF
:1005C00003E0104D104E356000BF00BF064D0835EA
:1005D0002D68C5F303150E4E705D0B4D2D68C5409B
:1005E000094E356070BD00000038024000700040C8
:1005F00019544007003C024088ED00E0FFFFF6FE82
:10060000103000240024F4001000002000127A00B2
:10061000140000201CB50121082000F00FFD03206C
:10062000009001208DF8040000208DF806000320C2
:100630008DF8050001208DF8070069460F4800F08D
:100640005FFA03210D4800F0D7FA1CBD10B504462F
:10065000012C08D10121094800F0D0FA02210748F5
:1006600000F0CAFA09E0022C07D10121034800F08A
:10067000C3FA0221014800F0C1FA10BD000C02408B
:1006800010B504466FF0040000F096F9E11704EB92
:100690005171C1F3C701394A11701046007800EB5F
:1006A0004001C1EBC0104FF6FF7101EAC0003449B0
:1006B000088010BD0146314A12784A434FF0E023CA
:1006C0005A6100229A611A46126942F001021A61C7
:1006D00000BF4FF0E022106900F001021AB100F4EF
:1006E0008032002AF5D04FF0E022126922F0010298
:1006F0004FF0E0231A6100229A6170470146204AB8
:1007000012884A434FF0E0235A6100229A611A4648
:10071000126942F001021A6100BF4FF0E022106935
:1007200000F001021AB100F48032002AF5D04FF037
:10073000E022126922F001024FF0E0231A61002248
:100740009A61704770B504464FF4077094FBF0F05F
:10075000C6B24FF4077094FBF0F100FB114085B274
:1007600005E04FF40770FFF7C9FF701EC6B2002EF8
:10077000F7D115B12846FFF7C1FF70BD2400002056
:100780002600002000BF704700BF4E4A128802F0CA
:100790004002002AF9D0C2B24A4B9A80704710B585
:1007A00088B004460121084600F048FC01211020D1
:1007B00000F09EFC07220921434800F02CFA072292
:1007C0000A21414800F027FA4FF4C0600690022049
:1007D0008DF81C008DF81D0000208DF81E000120F2
:1007E0008DF81F0006A9384800F08AF9029400200D
:1007F000ADF80C00ADF80E00ADF81000ADF8140027
:100800000C20ADF8120002A92E4800F0D2FD012103
:100810002C4800F056FE40212A4800F03AFF012201
:1008200040F22551274800F002FF25208DF80400F2
:1008300003208DF805008DF8060001208DF80700D3
:1008400001A800F06CF808B010BD10B540F22551B9
:100850001C4800F027FF10B31A4800F061FEC4B234
:100860001A48008800F40040C8B91848008800F40D
:10087000804060B10A2C03D000201449088020E099
:100880001248008840F400401049088019E00D2CFF
:1008900006D10E48008840F480400C49088010E0E2
:1008A0000A480088C0F30D0009490C540748008825
:1008B000401C0649088008460088C72801DD002042
:1008C000088010BD00100140000002402C000020F4
:1008D000C00000200948804709480047FEE7FEE7BE
:1008E000FEE7FEE7FEE7FEE7FEE7FEE7FEE7FEE7E0
:1008F00004480549054A064B70470000E10400081A
:1009000089010008182F0120183501201831012015
:100910001831012032490143324A1160704770B5E5
:10092000002100230F22C4781CB32E4C246804F449
:10093000E064C4F5E064C4F30721C1F10404E3B248
:100940000A4144789C40E1B28478144021430C076A
:10095000210E254C05786155047804F01F0501240B
:10096000AC4005786D11AD0005F1E025C5F80041FA
:1009700009E0047804F01F050124AC401B4D067803
:10098000761145F8264070BD194A0A400243154BBE
:100990001B1F1A60704739B1124A121D12680243B8
:1009A000104B1B1D1A6006E00E4A121D126882438E
:1009B0000C4B1B1D1A607047042808D14FF0E02132
:1009C000096941F004014FF0E022116107E04FF0A6
:1009D000E021096921F004014FF0E0221161704724
:1009E0000000FA050CED00E000E400E080E100E02A
:1009F00080FFFF1F10B504469848844208D10121AA
:100A0000084600F086FB0021012000F082FB76E022
:100A10009348844208D10121022000F07AFB002192
:100A2000022000F076FB6AE08E48844208D1012162
:100A3000042000F06EFB0021042000F06AFB5EE061
:100A40008948844208D10121082000F062FB00217E
:100A5000082000F05EFB52E08448844208D1012166
:100A6000102000F056FB0021102000F052FB46E061
:100A70007F48844208D10121202000F04AFB002158
:100A8000202000F046FB3AE07A48844208D1012158
:100A9000402000F03EFB0021402000F03AFB2EE019
:100AA0007548844208D10121802000F032FB0021EA
:100AB000802000F02EFB22E07048844208D1012102
:100AC000801500F026FB0021A01500F022FB16E0A7
:100AD0006B48844208D10121401500F01AFB002127
:100AE000601500F016FB0AE06648844207D1012138
:100AF000001500F00EFB0021201500F00AFB10BDD0
:100B0000F0B50A4600210023002400BF3DE0012586
:100B100005FA01F3156805EA03049C4234D105681F
:100B20004F000326BE40B543056015794E00B54021
:100B30000668354305601579012D02D01579022D1F
:100B400016D185684F000326BE40B54385605579B0
:100B50004E00B540866835438560456801268E4065
:100B6000B5434560456896798E40B6B235434560D9
:100B7000C5684F000326BE40B543C560D5794E0019
:100B8000B540C6683543C560491C1029BFD3F0BDC8
:100B90004FF6FF7101600021017141718171C171D6
:100BA000704708B54FF480320092009A0A430092D1
:100BB000009AC261C161009AC261C2690092C269B1
:100BC000009208BD0246002013690B400BB10120C2
:100BD00000E0002070470146086980B27047024675
:100BE000002053690B400BB1012000E0002070474A
:100BF0000146486980B2704701837047418370475E
:100C00000AB1018300E04183704741617047426946
:100C10004A4042617047F0B5002300244D07ED0EB5
:100C200002FA05F3CE1000F1200555F826504E07C4
:100C3000F70E0F26BE40B543CF1000F1200646F850
:100C40002750CE1000F1200555F8265045EA030440
:100C5000CE1000F1200545F82640F0BD000002400E
:100C60000004024000080240000C02400010024054
:100C70000014024000180240001C02400020024004
:100C80000024024000280240F948006840F00100BA
:100C9000F74908600020F64908310860F448006808
:100CA000F4490840F2490860F348091D0860F34818
:100CB000EF4984310860F0481038091D0860EC489D
:100CC000006820F48020EA4908600020E8490C31DF
:100CD0000860E7498C31086070470021E44A921CA3
:100CE000117011460870704710B5014600220023AC
:100CF00000204A11012A02D1DD4C236808E0022AB3
:100D000003D1DB4C7034236802E0D94C743423687F
:100D100001F01F02012494401C400CB1012000E0AE
:100D2000002010BD38B5002000900024002500BF31
:100D30003120FFF7D9FF05460098401C009000982D
:100D4000B0F5A04F01D0002DF2D03120FFF7CCFF3D
:100D500008B1012400E00024204638BD01460020EF
:100D6000C34A106820F0F80040EAC10010607047E4
:100D7000C349086070470021BD4A7032117011707C
:100D8000012802D004280AD104E00121B84A7032B7
:100D9000117005E00521B64A7032117000E000BF05
:100DA00000BF7047B7490860704770B5049C41EABE
:100DB00082150126C6EB530645EA0645054345EA7A
:100DC0000465AB4E361D356070BDAD490866704791
:100DD000820142EA0172A64B84331A607047A84927
:100DE0008866704710B5830143EA016343EA0273E2
:100DF0009F4C8834236010BDA14908677047A04903
:100E0000C864704702460020994B0833186820F0E8
:100E1000EC6042EA01031843954B083318607047B1
:100E200002460020924B0833186820F0784042EACE
:100E3000010318438E4B08331860704701460020A9
:100E40008B4A0832106820F0030008431060704796
:100E500087480830006800F00C0070470146002009
:100E6000834A0832106820F0F00008431060704791
:100E7000014600207E4A0832106820F4E050084302
:100E80001060704701460020794A0832106820F44B
:100E9000604040EAC10010607047F0B500210022B8
:100EA0000024022500260223714F08373F6807F00F
:100EB0000C0121B1042905D0082937D105E0724F72
:100EC000076036E0714F076033E0694F3F1D3F68B0
:100ED000C7F38056664F3F1D3F6807F03F036EB172
:100EE0006A4FB7FBF3F7DFF888C10CF1040CDCF8AC
:100EF00000C0CCF3881C07FB0CF40CE0624FB7FB7E
:100F0000F3F7DFF86CC10CF1040CDCF800C0CCF393
:100F1000881C07FB0CF4564F3F1D3F68C7F3014781
:100F20007F1C7D00B4FBF5F7076002E0564F0760B9
:100F300000BF00BF4E4F08373F6807F0F0010909B6
:100F4000534F7A5C0768D7404760494F08373F687E
:100F500007F4E051890A4E4F7A5C4768D7408760B2
:100F6000434F08373F6807F46041490B484F7A5CAC
:100F70004768D740C760F0BD002100F44072B2F569
:100F8000407F0AD13A4A0832116821F4F811414AE7
:100F900002401143364A08321160354A70321268F5
:100FA000C0F30B031A43324B70331A607047354954
:100FB0004439086070473349403908607047364902
:100FC0000860704701460020294A8C32106820F0E2
:100FD0001F004A1E1043264A8C321060704701469B
:100FE0000020234A8C32106820F4F8504A1E40EA50
:100FF00002201F4A8C3210607047014600201C4AB4
:101000008C32106820F4401008431060704701468D
:101010000020174A8C32106820F44000084310600A
:10102000704701460020124A8C32106820F440308C
:1010300008431060704719490860704739B10C4A7D
:101040003032126802430A4B30331A6006E0084A15
:10105000303212688243064B30331A607047F9B160
:10106000034A343212680243014B34331A601CE0E5
:1010700000380240FFFFF6EA103000240030002064
:1010800000004742800E47420024F40000127A001C
:101090002E000020FFFCFF0F5C014742E011474299
:1010A0008F4A126882438E4B1A60704739B18C4A5E
:1010B000121D126802438A4B1B1D1A6006E0884A03
:1010C000121D12688243864B1B1D1A60704739B18E
:1010D000834A0C3212680243814B0C331A6006E0DB
:1010E0007F4A0C32126882437D4B0C331A60704782
:1010F00039B17B4A103212680243794B10331A60BF
:1011000006E0774A103212688243754B10331A603A
:10111000704739B1724A243A12680243704B243B3B
:101120001A6006E06E4A243A126882436C4B243BF4
:101130001A60704739B16A4A203A12680243684B14
:10114000203B1A6006E0664A203A12688243644BEC
:10115000203B1A60704739B1614A1C3A1268024359
:101160005F4B1C3B1A6006E05D4A1C3A12688243E2
:101170005B4B1C3B1A60704739B1594A143A1268EC
:101180000243574B143B1A6006E0554A143A126862
:101190008243534B143B1A60704739B1504A103A9E
:1011A000126802434E4B103B1A6006E04C4A103A5C
:1011B000126882434A4B103B1A60704739B1484A63
:1011C0001C3212680243464B1C331A6006E0444A44
:1011D0001C3212688243424B1C331A60704739B18B
:1011E0003F4A2032126802433D4B20331A6006E02A
:1011F0003B4A203212688243394B20331A607047D1
:1012000039B1374A243212680243354B24331A600D
:1012100006E0334A243212688243314B24331A6089
:10122000704739B12E4A2C32126802432C4B2C33B2
:101230001A6006E02A4A2C3212688243284B2C336B
:101240001A60704739B1264A303212680243244B83
:1012500030331A6006E0224A303212688243204B53
:1012600030331A607047012808D11D493C310968A4
:1012700041F008011A4A3C32116007E018493C313C
:10128000096821F00801164A3C321160704739B1F3
:10129000134A273A12780243114B273B1A7006E093
:1012A0000F4A273A127882430D4B273B1A7070473A
:1012B0000B484030006840F08070094940310860B8
:1012C000704701460020064A283A12680A400AB1CF
:1012D000012000E00020704701492639087070475E
:1012E0003438024010B50446FA48844208D101213E
:1012F0001020FFF752FF00211020FFF74EFF57E0AC
:10130000F548844209D101214804FFF735FF002147
:101310004FF40030FFF730FF4AE0F048844209D133
:1013200001218804FFF728FF00214FF48020FFF7F8
:1013300023FF3DE0EA48844209D10121C804FFF7B8
:101340001BFF00214FF40020FFF716FF30E0E548B7
:10135000844209D101210805FFF70EFF00214FF457
:101360008010FFF709FF23E0DF48844208D1012104
:101370002020FFF712FF00212020FFF70EFF17E0CB
:10138000DA48844209D101218807FFF7F5FE0021E0
:101390004FF08040FFF7F0FE0AE0D548844207D1C5
:1013A00001214005FFF7E8FE00216005FFF7E4FE9C
:1013B00010BD2DE9FF4705460E460024A14600BF9B
:1013C000A046B08900B100BF2C8A24F44054F088B4
:1013D00004432C82AC8941F20C608443B08831898B
:1013E0000843718908430443AC81AC8A24F44074F7
:1013F000B0890443AC826846FFF74FFDB54885428B
:1014000002D0B948854202D1DDF80C9001E0DDF848
:101410000890A88900F4004040B109EBC90000EB36
:10142000091031684900B0FBF1F707E009EBC9008A
:1014300000EB091031688900B0FBF1F76420B7FBBD
:10144000F0F004012009642101FB1078A88900F460
:10145000004040B1322000EBC800B0FBF1F000F0DA
:101460000700044308E0322000EB08106421B0FBC1
:10147000F1F000F00F0004432C81BDE8FF874FF42A
:101480001651016000218180C18001810C214181C0
:1014900000218181704710B502460020108A20F497
:1014A00070600B884C8823438C882343CC8823436B
:1014B0001843108210BD0021018041808180C180CD
:1014C000704721B1828942F40052828104E082890E
:1014D0004DF6FF731A4082817047028B02F47F42FF
:1014E0000283028B0A430283704721B1828942F44E
:1014F0000042828103E08289C2F30E02828170473A
:1015000021B1828A42F40062828204E0828A4FF230
:10151000FF731A4082827047C1F3080282807047CD
:1015200001468888C0F308007047028A4FF6F073BE
:101530001A400282028A0A430282704721B18289DC
:1015400042F00202828104E082894FF6FD731A4064
:101550008281704782894FF2FF731A4082818289AB
:101560000A4382817047028A4FF6DF731A40028273
:10157000028A0A430282704721B1028A42F4804201
:10158000028204E0028A4BF6FF731A40028270471F
:10159000818941F001018181704721B1828A42F045
:1015A0000802828204E0828A4FF6F7731A40828230
:1015B0007047028BD2B20283028B42EA012202837D
:1015C000704721B1828A42F02002828204E0828A3E
:1015D0004FF6DF731A408282704721B1828A42F04F
:1015E0001002828204E0828A4FF6EF731A408282F0
:1015F0007047828A4FF6FB731A408282828A0A43BE
:101600008282704721B1828A42F00202828204E023
:10161000828A4FF6FD731A40828270471AB1838A1C
:101620000B43838202E0838A8B4383827047F0B549
:101630000346002400260025002040F66A17B94220
:1016400000D100BF1846C1F3421401F01F06012764
:1016500007FA06F5012C01D10C3004E0022C01D16F
:10166000103000E014301AB107682F43076002E021
:101670000768AF430760F0BD02460020B1F5007F68
:1016800000D100BF13880B400BB1012000E0002007
:10169000704701F40072B2F5007F00D100BFCA4369
:1016A0000280704770B50246002400230025002008
:1016B00040F66A16B14200D100BFC1F3421501F0F5
:1016C0001F03012606FA03F3012D13D19689334037
:1016D00017E00000001001400044004000480040B6
:1016E000004C0040005000400014014000780040D1
:1016F000007C0040022D02D1168A334001E0968A18
:1017000033400C12012606FA04F41688344013B153
:101710000CB1012000E0002070BD10B500220023B4
:1017200040F66A14A14200D100BF0A12012494407D
:10173000A3B2DC43048010BD00F1080141604FF00A
:10174000FF31816000F10801C16001610021016089
:10175000704700210161704742684A6093688B605E
:10176000936859609160086103685B1C036070476F
:1017700010B502460B685C1C0CB9106907E002F159
:10178000080000E04068446824689C42FAD9446834
:101790004C604C68A160886041600A611468641CF8
:1017A000146010BD01460A69D1E901309860D1E9A1
:1017B000010358605068884201D188685060002059
:1017C00008611068401E10601068704770B50546CB
:1017D0000E462C4654B900BF502080F31188BFF349
:1017E0004F8FBFF36F8F00BF00BFFEE703F0D3F949
:1017F000D4E90F12206801FB0200A0600020A06362
:1018000020686060E06B401E226C216800FB0211C2
:10181000E160FF2084F8440084F845009EB9206907
:1018200008B9012000E00020A8B904F1100001F07F
:10183000BBFF80B14FF08050FB490860BFF34F8F72
:10184000BFF36F8F07E004F11000FFF775FF04F19D
:101850002400FFF771FF03F0C5F9012070BD2DE9E9
:10186000F04106460D4617469846069C0DB9246081
:1018700000E02760E663256401212046FFF7A6FF0C
:1018800084F84C80BDE8F0812DE9F84306460F4608
:1018900090460EB1012000E0002050B900BF50205A
:1018A00080F31188BFF34F8FBFF36F8F00BF00BF6E
:1018B000FEE706FB07F51FB1B5FBF7F0B04201D11B
:1018C000012000E0002050B900BF502080F31188B3
:1018D000BFF34F8FBFF36F8F00BF00BFFEE705F16F
:1018E0005000A84201D9012000E0002050B900BFFB
:1018F000502080F31188BFF34F8FBFF36F8F00BF6D
:1019000000BFFEE705F1500003F049FA04464CB170
:10191000A14609F1500943464A46394630460094EB
:10192000FFF79DFF2046BDE8F88370B5044603F03D
:1019300032F994F9455010E0606A08B9012000E0DE
:10194000002038B904F1240001F02EFF18B102F094
:1019500036F800E003E0681E45B2002DECDC00BF65
:10196000FF2084F8450003F03DF903F014F994F9E1
:10197000445010E0206908B9012000E0002048B977
:1019800004F1100001F010FF08B102F018F8681E11
:1019900045B200E001E0002DECDC00BFFF2084F840
:1019A000440003F01FF970BD70B5054603F0F3F86D
:1019B000A86BE96B884201D1012400E0002403F008
:1019C00011F9204670BD2DE9F04104460F46154639
:1019D0004FF00008A66B206C48B9206800282CD175
:1019E000A06802F060F880460020A06025E07DB984
:1019F0003946226C606803F012FB216C6068084471
:101A00006060D4E90101884217D32068606014E067
:101A10003946226CE06803F002FB216CE068411A51
:101A2000E1602168E068884203D2216CA068411A15
:101A3000E160022D01D106B1761E701CA063404604
:101A4000BDE8F0812DE9FF4383B0064688461D4678
:101A50004FF00009344654B900BF502080F311887C
:101A6000BFF34F8FBFF36F8F00BF00BFFEE7B8F12A
:101A7000000F01D1206C08B9012000E0002050B90E
:101A800000BF502080F31188BFF34F8FBFF36F8FDB
:101A900000BF00BFFEE7022D02D1E06B012801D19B
:101AA000012000E0002050B900BF502080F31188D1
:101AB000BFF34F8FBFF36F8F00BF00BFFEE701F092
:101AC00090FF08B9059808B9012000E0002050B93E
:101AD00000BF502080F31188BFF34F8FBFF36F8F8B
:101AE00000BF00BFFEE700BF03F055F8A06BE16B3D
:101AF000884201D3022D28D12A4641462046FFF7CD
:101B000062FF0746606A08B9012000E0002068B95A
:101B100004F1240001F048FE88B14FF080504249A2
:101B20000860BFF34F8FBFF36F8F08E03FB14FF0F6
:101B300080503D490860BFF34F8FBFF36F8F03F0B4
:101B400051F8012007B0BDE8F083059818B903F0FB
:101B500049F80020F6E7B9F1000F04D101A801F01F
:101B6000E3FE4FF0010903F03DF801F0FAF803F04D
:101B700012F894F94400401C10B9002084F8440085
:101B800094F94500401C10B9002084F8450003F08A
:101B900029F805A901A801F0CEFEF0B92046FFF70B
:101BA00003FFA0B104F11000059901F093FD204658
:101BB000FFF7BBFE01F027F8002895D14FF08050C9
:101BC00019490860BFF34F8FBFF36F8F8CE7204632
:101BD000FFF7ABFE01F017F886E72046FFF7A5FEFA
:101BE00001F011F80020ADE710B5044654B1002013
:101BF000A06020600021E16000231A4619462046BB
:101C0000FFF720FF10BD2DE9F04104460126002713
:101C1000224600210120FFF737FE05462846FFF740
:101C2000E3FF2846BDE8F08104ED00E070B505460D
:101C30002C4654B900BF502080F31188BFF34F8F5A
:101C4000BFF36F8F00BF00BFFEE701F0C7FEA168C2
:101C500088420CD1E068401EE060E06828B90023AB
:101C60001A4619462046FFF7EDFE012600E0002641
:101C7000304670BD01464A6A22B10A6B1268C2F151
:101C8000050000E00020704770B5054602F083FFB4
:101C9000A86B08B9012400E0002402F0A3FF20464D
:101CA00070BD2DE9F34182B005464FF000082C4687
:101CB000002654B900BF502080F31188BFF34F8F26
:101CC000BFF36F8F00BF00BFFEE7206C08B9012093
:101CD00000E0002050B900BF502080F31188BFF30E
:101CE0004F8FBFF36F8F00BF00BFFEE701F079FE9B
:101CF00008B9039808B9012000E0002050B900BFDE
:101D0000502080F31188BFF34F8FBFF36F8F00BF58
:101D100000BFFEE700BF02F03EFFA76BFFB1781ED9
:101D2000A063206810B901F08DFFA060206908B998
:101D3000012000E0002060B904F1100001F034FD42
:101D400038B14FF08050F7490860BFF34F8FBFF3B1
:101D50006F8F02F047FF012004B0BDE8F0810398C7
:101D600098B90EB9012000E0002050B900BF502002
:101D700080F31188BFF34F8FBFF36F8F00BF00BF99
:101D8000FEE702F02FFF0020E6E7B8F1000F04D1D4
:101D9000684601F0C9FD4FF0010802F023FF00F092
:101DA000E0FF02F0F8FE94F94400401C10B9002056
:101DB00084F8440094F94500401C10B9002084F8D0
:101DC000450002F00FFF03A9684601F0B4FD40BBD7
:101DD0002046FFF759FFF0B1206838B902F0DBFE6A
:101DE000A06801F00AFE064602F0FCFE04F12400A1
:101DF000039901F06FFC2046FFF797FD00F003FF09
:101E0000002888D14FF08050C6490860BFF34F8F3B
:101E1000BFF36F8F7FE72046FFF787FD00F0F3FEEB
:101E200079E72046FFF781FD00F0EDFE2046FFF741
:101E30002BFF0028EED05EB102F0ADFE2046FFF78A
:101E400019FF07463946A06801F084FE02F0CAFE79
:101E5000002081E72DE9F04106460F46344654B98B
:101E600000BF502080F31188BFF34F8FBFF36F8FF7
:101E700000BF00BFFEE701F0B1FDA168884204D1B8
:101E8000E068401CE060012508E039462046FFF785
:101E900008FF054615B1E068401CE0602846BDE833
:101EA000F08170B505460E460DB1012000E000201E
:101EB00050B900BF502080F31188BFF34F8FBFF39C
:101EC0006F8F00BF00BFFEE7AE4201D8012000E0E7
:101ED000002050B900BF502080F31188BFF34F8F0E
:101EE000BFF36F8F00BF00BFFEE70222002128462C
:101EF000FFF7CAFC044604B1A663204670BD2DE975
:101F0000F84F07468B4690461E463C4654B900BFE4
:101F1000502080F31188BFF34F8FBFF36F8F00BF46
:101F200000BFFEE7BBF1000F01D1206C08B9012012
:101F300000E0002050B900BF502080F31188BFF3AB
:101F40004F8FBFF36F8F00BF00BFFEE7022E02D19D
:101F5000E06B012801D1012000E0002050B900BF52
:101F6000502080F31188BFF34F8FBFF36F8F00BFF6
:101F700000BFFEE702F06AFE00BF5021EFF31180C0
:101F800081F31188BFF34F8FBFF36F8F00BF0546FA
:101F9000A06BE16B884201D3022E37D194F945A0A2
:101FA000A06B0090324659462046FFF70CFD0AF11F
:101FB000010088B9606A08B9012000E0002050B92A
:101FC00004F1240001F0F0FB28B1B8F1000F02D0B9
:101FD0000120C8F8000016E0BAF17F0F01D00120FF
:101FE00000E0002050B900BF502080F31188BFF3FB
:101FF0004F8FBFF36F8F00BF00BFFEE70AF10100F4
:1020000040B284F845004FF0010901E04FF00009AB
:1020100000BF85F3118800BF4846BDE8F88F2DE961
:10202000F04706460F46344654B900BF502080F3AF
:102030001188BFF34F8FBFF36F8F00BF00BFFEE764
:10204000206C08B9012000E0002050B900BF5020EA
:1020500080F31188BFF34F8FBFF36F8F00BF00BFB6
:10206000FEE7206808B9A06808B9012000E0002058
:1020700050B900BF502080F31188BFF34F8FBFF3DA
:102080006F8F00BF00BFFEE702F0E0FD00BF5021F0
:10209000EFF3118081F31188BFF34F8FBFF36F8F80
:1020A00000BF0546D4F838A0E06B504530D994F90C
:1020B00045900AF10100A06309F1010070B9606A5E
:1020C00008B9012000E00020F8B904F1240001F073
:1020D0006BFBD0B1CFB10120386016E0B9F17F0FB2
:1020E00001D0012000E0002050B900BF502080F353
:1020F0001188BFF34F8FBFF36F8F00BF00BFFEE7A4
:1021000009F1010040B284F845004FF0010801E0F8
:102110004FF0000800BF85F3118800BF4046BDE8BE
:10212000F087000004ED00E070B504460D46206C19
:1021300070B1216CE0680144E160D4E9021088428A
:1021400001D32168E1602846226CE16802F067FF54
:1021500070BD2DE9F74183B005460E464FF00008EB
:102160002C4654B900BF502080F31188BFF34F8F25
:10217000BFF36F8F00BF00BFFEE70EB9206C08B938
:10218000012000E0002050B900BF502080F31188EA
:10219000BFF34F8FBFF36F8F00BF00BFFEE701F0AB
:1021A00020FC08B9059808B9012000E0002050B9CA
:1021B00000BF502080F31188BFF34F8FBFF36F8FA4
:1021C00000BF00BFFEE700BF02F0E5FCA76BF7B160
:1021D00031462046FFF7A8FF781EA063206908B9A2
:1021E000012000E0002060B904F1100001F0DCFAE9
:1021F00038B14FF08050F9490860BFF34F8FBFF3FB
:102200006F8F02F0EFFC012006B0BDE8F081059869
:1022100018B902F0E7FC0020F6E7B8F1000F04D18E
:1022200001A801F081FB4FF0010802F0DBFC00F097
:1022300098FD02F0B0FC94F94400401C10B9002055
:1022400084F8440094F94500401C10B9002084F83B
:10225000450002F0C7FC05A901A801F06CFBF0B92C
:102260002046FFF711FDA0B104F12400059901F00B
:1022700031FA2046FFF759FB00F0C5FC0028A3D136
:102280004FF08050D5490860BFF34F8FBFF36F8F79
:102290009AE72046FFF749FB00F0B5FC94E720469B
:1022A000FFF743FB00F0AFFC2046FFF7EDFC0028F2
:1022B0008AD00020A8E72DE9F74382B005460E46F4
:1022C0004FF000082C4654B900BF502080F311880D
:1022D000BFF34F8FBFF36F8F00BF00BFFEE70EB994
:1022E000206C08B9012000E0002050B900BF502048
:1022F00080F31188BFF34F8FBFF36F8F00BF00BF14
:10230000FEE701F06EFB08B9049808B9012000E06F
:10231000002050B900BF502080F31188BFF34F8FC9
:10232000BFF36F8F00BF00BFFEE700BF02F033FCBA
:10233000D4F83890B9F1000F1ED0E7683146204636
:10234000FFF7F2FEE760606A08B9012000E00020B4
:1023500060B904F1240001F027FA38B14FF0805041
:102360009E490860BFF34F8FBFF36F8F02F03AFCB6
:10237000012005B0BDE8F083049818B902F032FCE2
:102380000020F6E7B8F1000F04D1684601F0CCFA5E
:102390004FF0010802F026FC00F0E3FC02F0FBFB2A
:1023A00094F94400401C10B9002084F8440094F9CA
:1023B0004500401C10B9002084F8450002F012FCD2
:1023C00004A9684601F0B7FAF0B92046FFF75CFCB3
:1023D000A0B104F12400049901F07CF92046FFF734
:1023E000A4FA00F010FC0028A0D14FF080507B49E7
:1023F0000860BFF34F8FBFF36F8F97E72046FFF75B
:1024000094FA00F000FC91E72046FFF78EFA00F006
:10241000FAFB2046FFF738FC002887D00020A8E709
:102420002DE9F05F06468A461746344654B900BF88
:10243000502080F31188BFF34F8FBFF36F8F00BF21
:1024400000BFFEE7BAF1000F01D1206C08B90120EE
:1024500000E0002050B900BF502080F31188BFF386
:102460004F8FBFF36F8F00BF00BFFEE702F0EEFBA0
:1024700000BF5021EFF3118081F31188BFF34F8F1C
:10248000BFF36F8F00BF0546D4F838B0BBF1000F23
:1024900034D094F9449051462046FFF745FEABF105
:1024A0000100A06309F1010070B9206908B9012099
:1024B00000E00020F8B904F1100001F075F9D0B186
:1024C000CFB10120386016E0B9F17F0F01D00120B3
:1024D00000E0002050B900BF502080F31188BFF306
:1024E0004F8FBFF36F8F00BF00BFFEE709F1010000
:1024F00040B284F844004FF0010801E04FF00008BA
:1025000000BF85F3118800BF4046BDE8F09F2DE96C
:10251000F04706468846344654B900BF502080F341
:102520001188BFF34F8FBFF36F8F00BF00BFFEE76F
:10253000B8F1000F01D1206C08B9012000E00020A3
:1025400050B900BF502080F31188BFF34F8FBFF305
:102550006F8F00BF00BFFEE7206C08B1012000E0D4
:10256000002050B900BF502080F31188BFF34F8F77
:10257000BFF36F8F00BF00BFFEE702F067FB00BF35
:102580005021EFF3118081F31188BFF34F8FBFF318
:102590006F8F00BF0546A06B48B1D4F80C90414640
:1025A0002046FFF7C1FDC4F80C90012700E000278A
:1025B00000BF85F3118800BF3846BDE8F08770B5CD
:1025C00004466CB900BF502080F31188BFF34F8FD1
:1025D000BFF36F8F00BF00BFFEE7000004ED00E017
:1025E00002F0D9FAA56B02F0FDFA284670BD70B56D
:1025F0000446254655B900BF502080F31188BFF32B
:102600004F8FBFF36F8F00BF00BFFEE702F0C3FA2A
:10261000D5E90E10461A02F0E5FA304670BD10B545
:1026200001460A4652B900BF502383F31188BFF315
:102630004F8FBFF36F8F00BF00BFFEE7906B10BDE1
:10264000014600200EE0544A02EBC00252688A4262
:1026500007D10022504B43F8302003EBC0035A60EF
:1026600002E0401C0828EED300BF704770B5044656
:10267000254655B900BF502080F31188BFF34F8F16
:10268000BFF36F8F00BF00BFFEE72846FFF7D8FFFC
:10269000284602F02DFC70BD0146886C70478164AD
:1026A0007047014691F84C00704710B501460A4644
:1026B00052B900BF502383F31188BFF34F8FBFF38C
:1026C0006F8F00BF00BFFEE7936B0BB9012000E0E6
:1026D000002010BD10B501460A4652B900BF502374
:1026E00083F31188BFF34F8FBFF36F8F00BF00BF1D
:1026F000FEE7936BD46BA34201D1012000E00020E0
:1027000010BD024600200BE0234B53F8303033B9A4
:10271000214B43F8301003EBC0035A6002E0401C29
:102720000828F1D300BF70470246002000210AE0CC
:10273000194B03EBC1035B68934203D1164B53F86B
:10274000310002E0491C0829F2D300BF70472DE98F
:10275000F04105460E4617462C4602F01CFA94F945
:102760004400401C10B9002084F8440094F945004E
:10277000401C10B9002084F8450002F033FAA06B29
:1027800028B93A46314604F1240000F0EFFF204614
:10279000FFF7CBF8BDE8F0818801002010B50024D8
:1027A00007E004EB8401F74A02EB8100FEF7C4FF67
:1027B000641C052CF5D3F448FEF7BEFFF348FEF782
:1027C000BBFFF348FEF7B8FFF248FEF7B5FFF2484B
:1027D000FEF7B2FFEC48F1490860EC48F0490860A8
:1027E00010BD10B5044602F0D6F9EE480068401C52
:1027F000EC490860EC48006840B9EB4804600846C2
:10280000006801280DD1FFF7C9FF0AE0E74800681A
:1028100038B9E5480068C06AE16A884201D8E248F0
:102820000460E3480068401CE1490860084600680D
:10283000206494F82C1001208840DE490968084380
:10284000DC490860E16A01EB8101CE4A02EB8100BC
:10285000211DFEF781FF02F0C5F9D448006868B178
:10286000D1480068C06AE16A884207D24FF08050C0
:10287000D1490860BFF34F8FBFF36F8F10BD2DE9B3
:10288000F05F82460E4690469B460A9F0C9C4FEA9C
:102890008801A522206B02F007FCA8F10100216B42
:1028A00001EB800929F0070909F0070008B90120A8
:1028B00000E0002050B900BF502080F31188BFF322
:1028C0004F8FBFF36F8F00BF00BFFEE786B10025BB
:1028D00007E0715D04F134004155705D00B902E01C
:1028E0006D1C0A2DF5D300BF00213D20015502E0EB
:1028F000002084F83400052F00D30427E762A76482
:102900000020E064201DFEF724FF04F11800FEF70C
:1029100020FF2461C7F10500A061646200202065EA
:1029200084F854005A465146484602F055F8206053
:102930000B9808B10B980460BDE8F09F2DE9FF4F9C
:1029400085B0804689461746DDE912ABB80002F033
:1029500026FA064656B1582002F021FA04460CB178
:10296000266304E0304602F0C3FA00E000247CB1A4
:102970000020CDE900ABCDE902403A464946404649
:10298000089BFFF77CFF2046FFF72BFF012501E0A6
:102990004FF0FF35284609B0BDE8F08F7F4800684A
:1029A000006808B9012000E0002020B14FF0FF309E
:1029B0008249086005E079480068C06800687F497E
:1029C0000860704710B50446206B02F091FA20466B
:1029D00002F08EFA10BD70B5054602F0DCF815B9AC
:1029E0007148006800E028460446201DFEF7DAFE24
:1029F00078B9E06A00EB8000624951F8200040B9E4
:102A000094F82C10012088406A490968814369487C
:102A10000160A06A18B104F11800FEF7C3FE644813
:102A20000068401C624908605F480068844209D120
:102A3000211D5848FEF790FE61480068401C60491F
:102A4000086009E057480068401E56490860204663
:102A5000FFF7B8FFFFF7A2FF02F0C4F85348006881
:102A6000E8B151480068844219D15648006808B955
:102A7000012000E0002050B900BF502080F31188F1
:102A8000BFF34F8FBFF36F8F00BF00BFFEE74FF064
:102A9000805049490860BFF34F8FBFF36F8F70BDFF
:102AA0002DE9F0414FF0000846480068002868D141
:102AB00045480068451C4448056015BB3748006818
:102AC000006808B9012000E0002050B900BF502084
:102AD00080F31188BFF34F8FBFF36F8F00BF00BF2C
:102AE000FEE72E4807682E4800682C4908602C48ED
:102AF000076036480068401C34490860FFF74EFF05
:102B000000BF2E480068854263D300BF2348006899
:102B1000006808B9012000E0002020B14FF0FF302C
:102B20002649086054E01D480068C068C4686668AB
:102B3000B54202D2214806604AE0201DFEF732FE6F
:102B4000A06A18B104F11800FEF72CFE94F82C10BE
:102B50000120884017490968084316490860E16A5E
:102B600001EB8101074A02EB8100211DFEF7F4FD14
:102B70000D49E06A0968C96A8842C7D34FF0010865
:102B8000C4E738E0C80100202C02002040020020E9
:102B900054020020680200207C0200204400002033
:102BA0004800002050000020400000205C00002071
:102BB0006C0000205800002004ED00E070000020B0
:102BC0004C0000207C000020540000206800002001
:102BD00000BFF9480068C06A00EB8000F74951F86F
:102BE0002000012801D94FF00108F548006808B11C
:102BF0004FF0010804E0F3480068401CF149086008
:102C00004046BDE8F08170B500240026EE4800681B
:102C100050B900BF502080F31188BFF34F8FBFF32E
:102C20006F8F00BF00BFFEE701F0B5FFE648006808
:102C3000401EE54908600846006800284FD1E34877
:102C4000006800284BD024E0E148C068C46804F163
:102C50001800FEF7A7FD201DFEF7A4FD94F82C1028
:102C600001208840DB4909680843DA490860E16AC5
:102C700001EB8101D14A02EB8100211DFEF76CFDC1
:102C8000CD49E06A0968C96A884202D30120CC496B
:102C90000860CF48006808B9012000E00020002843
:102CA000D2D00CB1FFF77AFEC648056865B100BF07
:102CB000FFF7F6FE10B10120C14908606D1E002D1E
:102CC000F6D10020BF490860BD48006838B1012630
:102CD0003007C1490860BFF34F8FBFF36F8F01F01A
:102CE00081FF304670BD2DE9F04105460E46BB48D8
:102CF0000768B1480068001DFEF754FD50B9AE48A2
:102D0000006890F82C1001208840B249096881437E
:102D1000B0480160681C38B936B1A7480168091D80
:102D2000AF48FEF719FD1AE07C19A348006844601B
:102D3000BC4207D2A0480168091DAA480068FEF7F6
:102D400017FD0CE09C480168091DA7480068FEF7C4
:102D50000FFDA6480068844201D2A4480460BDE883
:102D6000F08199480068401C9749086070472DE938
:102D7000F04704460F464FF0000954B900BF5020F9
:102D800080F31188BFF34F8FBFF36F8F00BF00BF79
:102D9000FEE70FB1012000E0002050B900BF502035
:102DA00080F31188BFF34F8FBFF36F8F00BF00BF59
:102DB000FEE78548006808B9012000E0002050B90E
:102DC00000BF502080F31188BFF34F8FBFF36F8F88
:102DD00000BF00BFFEE7FFF7C4FF80480668206819
:102DE000C5192068B04207D92068A8420BD9B5425E
:102DF00009D94FF0010906E02068A84201D8B54280
:102E000001D94FF001092560B9F1000F03D0A81BCB
:102E10000021FFF768FFFFF7F6FE8046B8F1000FCC
:102E200007D14FF080506C490860BFF34F8FBFF35C
:102E30006F8F4846BDE8F08770B504460025D4B1D1
:102E40006148006808B9012000E0002050B900BFC7
:102E5000502080F31188BFF34F8FBFF36F8F00BFF7
:102E600000BFFEE7FFF77DFF00212046FFF73BFF95
:102E7000FFF7C9FE05463DB94FF08050564908603E
:102E8000BFF34F8FBFF36F8F70BD2DE9F04707463B
:102E90003E4656B900BF502080F31188BFF34F8FD4
:102EA000BFF36F8F00BF00BFFEE743480068864254
:102EB00001D100242DE001F06EFE75694A48D0F87A
:102EC00000804848D0F8009001F08CFE454501D0C4
:102ED0004D4501D102241CE04148854212D1B06A1F
:102EE00070B90324002007E006F15401095C0129B0
:102EF00001D1022402E0401C0128F5DB00BF08E0FC
:102F0000022406E03A48854200D00DB9042400E0CE
:102F100001242046BDE8F08770B5044601F03BFE71
:102F200014B92548006800E020460646F56A01F01D
:102F300059FE284670BD2DE9F041054601F086FE98
:102F400000BF5021EFF3118081F31188BFF34F8F41
:102F5000BFF36F8F00BF044615B91748006800E043
:102F600028460746FE6A00BF84F3118800BF30463A
:102F7000BDE8F0812DE9F04780460D464FF000098D
:102F8000052D01D2012000E0002050B900BF5020E3
:102F900080F31188BFF34F8FBFF36F8F00BF00BF67
:102FA000FEE7052D00D3042501F0F5FDB8F1000F73
:102FB00020D1014800681EE040000020C801002028
:102FC00064000020600000207C00002050000020F1
:102FD000540200205800002004ED00E054000020BE
:102FE0007C020020480000204400002070000020E7
:102FF0006802002040460446A66CAE4256D0B54258
:103000000BD9FE48006884420DD0FC480068C06AB5
:10301000A84208D84FF0010905E0F848006884424A
:1030200001D14FF00109E76AE16AA06C884200D142
:10303000E562A564A06900F0004010B9C5F1050083
:10304000A06107EB8701EE4A02EB810160698842CB
:1030500001D1012000E00020E0B1201DFEF7A2FB1D
:1030600030B90120B840E74909688143E54801606B
:1030700094F82C1001208840E24909680843E1498E
:103080000860E16A01EB8101DD4A02EB8100211D4C
:10309000FEF762FBB9F1000F07D04FF08050DA491C
:1030A0000860BFF34F8FBFF36F8F00BF01F09AFD31
:1030B000BDE8F087D548006818B10120D449086000
:1030C00032E00020D2490860CE480068B0FA80F0B3
:1030D000C0F11F0101EB8100C94A52F8200008B17C
:1030E000012000E0002050B900BF502080F311887B
:1030F000BFF34F8FBFF36F8F00BF00BFFEE701EB41
:103100008102BF4B03EB820042685268426000F1CB
:1031100008024368934202D14268526842604268A2
:10312000D268B64B1A6000BF704770B5054601F013
:1031300032FD15B9B148006800E028460446201D5C
:10314000FEF730FB78B9E06A00EB8000AC4951F83B
:10315000200040B994F82C1001208840A949096842
:103160008143A8480160A06A18B104F11800FEF775
:1031700019FB211DA748FEF7EFFA002009E004F132
:103180005401095C012903D1002204F154010A54BD
:10319000401C0128F3DB01F025FD9F48006828B1A1
:1031A00001F0F9FCFFF7FAFB01F01CFD9348006801
:1031B000844229D198480068D0B19448006808B981
:1031C000012000E0002050B900BF502080F311889A
:1031D000BFF34F8FBFF36F8F00BF00BFFEE74FF00D
:1031E000805089490860BFF34F8FBFF36F8F0BE0AA
:1031F0008848006889490968884203D100207F49CE
:10320000086001E0FFF756FF70BD10B502460020D0
:10321000114652B900BF502383F31188BFF34F8F7B
:10322000BFF36F8F00BF00BFFEE77A4C4B69A3422C
:1032300001D1012300E0002373B1794C8B6AA342D2
:1032400001D1012300E0002333B98B6A0BB90123BC
:1032500000E0002303B1012010BD70B505462C46E7
:1032600055B900BF502080F31188BFF34F8FBFF3D3
:103270006F8F00BF00BFFEE76048006884422BD01C
:1032800054B301F088FC2046FFF7BFFF10B3201DA8
:10329000FEF788FA94F82C100120884059490968F3
:1032A000084358490860E16A01EB8101544A02EB86
:1032B0008100211DFEF750FA5049E06A0968C96A89
:1032C000884207D34FF080504F490860BFF34F8FBB
:1032D000BFF36F8F01F086FC70BD2DE9F04106460B
:1032E0000027344656B900BF502080F31188BFF341
:1032F0004F8FBFF36F8F00BF00BFFEE701F0A6FC4A
:1033000000BF5021EFF3118081F31188BFF34F8F7D
:10331000BFF36F8F00BF05462046FFF776FF08B367
:103320003A480068F8B93549E06A0968C96A8842CC
:1033300003D30127012036490860201DFEF732FA29
:1033400094F82C10012088402E49096808432D4923
:103350000860E16A01EB8101294A02EB8100211D2D
:10336000FEF7FAF904E004F118012D48FEF7F4F92C
:1033700000BF85F3118800BF3846BDE8F08110B565
:1033800016E001F008FC2748C068C468201DFEF75D
:1033900009FA22480068401E204908602248006857
:1033A000401E2149086001F01DFC2046FFF70AFB82
:1033B0001D4800680028E4D110BD00BFFFF7DFFF03
:1033C0000F4800680128F9D94FF080500E49086075
:1033D000BFF34F8FBFF36F8FF0E71CB51348002189
:1033E0000B468222CDE9001011A11348FFF7A6FA7F
:1033F0000446012C23D101F089F91FE04000002090
:10340000C80100205800002004ED00E07C000020EE
:10341000640000207C0200205C000020500000209E
:1034200054020020680200204C000020740000209C
:1034300049444C4500000000BB3300080446012C01
:1034400015D100BF502080F31188BFF34F8FBFF319
:103450006F8F00BF4FF0FF30F74908600120F74938
:1034600008600020F649086001F0DBFA10E0601CFB
:1034700008B1012000E0002050B900BF502080F3C7
:103480001188BFF34F8FBFF36F8F00BF00BFFEE700
:10349000EC4800681CBD10B500BF502080F31188B7
:1034A000BFF34F8FBFF36F8F00BF0020E349086069
:1034B00001F05CFB10BDE2490868704770B501F08F
:1034C000C5FB0025DE480468204670BDDE48006864
:1034D0007047014611B9DD48006800E00846024621
:1034E00052B900BF502080F31188BFF34F8FBFF354
:1034F0006F8F00BF00BFFEE702F134007047024645
:10350000002101E0521C491C1078A528FAD0890836
:1035100088B270472DE9F04107460C4690461E469A
:1035200017B9CA48006800E038460546256005F12D
:1035300034006060E86A2061286BE061286CA0605C
:10354000A86C60610020A061052E12D0BF48006801
:10355000854202D1002020730FE02673032E0CD188
:10356000FFF7FFFBA86A08B102202073FFF74BFBAF
:1035700003E02846FFF789FC2073B8F1000F04D060
:10358000286BFFF7BCFF208401E000202084BDE809
:10359000F0812DE9F04707460C469046002620684A
:1035A00048B3204641684968416000F1080142681B
:1035B0008A4202D14168496841604168D1F80C9063
:1035C00000BF204641684968416000F10801426837
:1035D0008A4202D14168496841604168CD6806EB82
:1035E000C60007EB8001434601222846FFF792FF01
:1035F000761C4D45E5D13046BDE8F0872DE9F04118
:1036000005468846164600240527FFF7AAFB8E4884
:103610000068804539D300BF7F1E07EB87028C4BC3
:1036200003EB820104EBC40205EB82000122FFF7E9
:10363000B0FF0444002FEFD104EBC40105EB81007F
:10364000022284490968FFF7A4FF044404EBC40183
:1036500005EB8100022280490968FFF79AFF0444C4
:1036600004EBC40105EB810004227C49FFF791FFC4
:10367000044404EBC40105EB810003227849FFF701
:1036800088FF04440EB100203060FFF7BCFA2046EA
:10369000BDE8F08170B504467248006808B90120A1
:1036A00000E0002050B900BF502080F31188BFF324
:1036B0004F8FBFF36F8F00BF00BFFEE7FFF751FBD7
:1036C00069480068204468490860FFF79CFA05468D
:1036D000284670BD70B504460D4654B900BF502051
:1036E00080F31188BFF34F8FBFF36F8F00BF00BF10
:1036F000FEE75648016818312046FEF739F80121E7
:103700002846FFF7F0FA70BD70B504460D46164620
:1037100054B900BF502080F31188BFF34F8FBFF31F
:103720006F8F00BF00BFFEE74E48006808B1012060
:1037300000E0002050B900BF502080F31188BFF393
:103740004F8FBFF36F8F00BF00BFFEE745F0004013
:103750003E49096888613D48016818312046FDF7F7
:10376000FBFF01213046FFF7BEFA70BD70B505467C
:103770000E46144655B900BF502080F31188BFF3A0
:103780004F8FBFF36F8F00BF00BFFEE72F48016868
:1037900018312846FDF7E0FF0CB14FF0FF36214607
:1037A0003046FFF7A0FA70BD70B50646F068C468F1
:1037B00054B900BF502080F31188BFF34F8FBFF37F
:1037C0006F8F00BF00BFFEE704F11800FDF7EAFFAE
:1037D00024480068A8B9201DFDF7E4FF94F82C10D8
:1037E0000120884021490968084320490860E16AAE
:1037F00001EB8101164A02EB8100211DFDF7ACFFB0
:1038000004E004F118011A48FDF7A6FF0F49E06A29
:103810000968C96A884204D9012501201549086050
:1038200000E00025284670BD70B505460E460D48DF
:10383000006808B3012020E0700000205C00002038
:10384000540000207800002050000020400000209C
:10385000C801002044000020480000206802002029
:103860007C0200207C000020600000205800002026
:103870005402002064000020002050B900BF5020F6
:1038800080F31188BFF34F8FBFF36F8F00BF00BF6E
:10389000FEE746F000402860EC6854B900BF5020B5
:1038A00080F31188BFF34F8FBFF36F8F00BF00BF4E
:1038B000FEE72846FDF776FF201DFDF773FF94F81D
:1038C0002C1001208840FE4909680843FC49086023
:1038D000E16A01EB8101FB4A02EB8100211DFDF74A
:1038E0003BFFF949E06A0968C96A884202D90120A8
:1038F000F649086070BD10B5044654B900BF5020A9
:1039000080F31188BFF34F8FBFF36F8F00BF00BFED
:10391000FEE701F040F9EE4800682060ED480068DD
:10392000606001F05FF910BDE94909680160E9498B
:1039300009684160704770B505460C4655B900BF2F
:10394000502080F31188BFF34F8FBFF36F8F00BFFC
:1039500000BFFEE754B900BF502080F31188BFF3C9
:103960004F8FBFF36F8F00BF00BFFEE701F013F969
:10397000D84802686868131A2068401C08B90026F5
:1039800019E0D34928680968884206D068689042DF
:1039900003D80126002020600DE02068984207D956
:1039A0002068C01A20602846FFF7BEFF002602E00C
:1039B00000202060012601F015F9304670BD01207D
:1039C000C24908607047014611B10A46506C00E0D8
:1039D0000020704708B1024651647047BA49086830
:1039E0007047BD49096809B9012005E0BB4909686C
:1039F00009B9022000E00020704770B505462C464A
:103A00000026002D4DD0B049E06A0968C96A884295
:103A100040D2A06900F0004028B9AB480068C06AF5
:103A2000C0F10500A061E16A01EB8101A54A02EB4A
:103A300081016069884201D1012000E0002018B3B3
:103A4000201DFDF7AFFE40B994F82C1001208840EE
:103A50009B49096881439A4801609B480068C06A95
:103A6000E06294F82C1001208840954909680843C9
:103A700093490860E16A01EB8101924A02EB8100FF
:103A8000211DFDF769FE03E08F480068C06AE0620F
:103A9000012606E08C49A06C0968C96A884200D2F8
:103AA0000126304670BD70B505462C460026002D17
:103AB0004ED085480068844201D1012000E00020FA
:103AC00050B900BF502080F31188BFF34F8FBFF370
:103AD0006F8F00BF00BFFEE7E06C50B900BF502001
:103AE00080F31188BFF34F8FBFF36F8F00BF00BF0C
:103AF000FEE7E06C401EE064A16CE06A884227D0DB
:103B0000E06C28BB201DFDF74DFE40B994F82C1049
:103B1000012088406A490968814369480160A06CB6
:103B2000E062E06AC0F10500A06194F82C10012069
:103B3000884063490968084361490860E16A01EB0C
:103B40008101604A02EB8100211DFDF705FE01267F
:103B5000304670BD2DE9F04706460F4634464FF01B
:103B60000109002E60D0E06C50B900BF502080F3F6
:103B70001188BFF34F8FBFF36F8F00BF00BFFEE709
:103B8000A06CB84201D23D4600E0A56CE06AA842B4
:103B90004AD0E06C012847D14B480068844201D0EC
:103BA000012000E0002050B900BF502080F31188B0
:103BB000BFF34F8FBFF36F8F00BF00BFFEE7D4F896
:103BC0002C80E562A06900F0004010B9C5F1050045
:103BD000A06108EB88013B4A02EB810160698842E1
:103BE00001D1012000E00020F0B1201DFDF7DAFD39
:103BF00040B994F82C10012088403149096881436C
:103C00002F48016094F82C10012088402C49096845
:103C100008432B490860E16A01EB8101294A02EB64
:103C20008100211DFDF798FDBDE8F0872649096850
:103C3000886925490968C96AC1F10501224A1268E3
:103C4000916170472048006830B11F49096801F14F
:103C50004C00C96C491C01601B48006870472DE985
:103C6000F04104460F4616460CB9012000E0002042
:103C700050B900BF502080F31188BFF34F8FBFF3BE
:103C80006F8F00BF00BFFEE700F085FF0E480068A1
:103C9000503050F8240080B901210B48006854309E
:103CA000015556B13046FFF71EF84FF080500C49D1
:103CB0000860BFF34F8FBFF36F8F00F093FF11E0E9
:103CC00058000020C80100204000002064000020AF
:103CD00068000020540000205C0000207C000020D0
:103CE00004ED00E000F057FFFE480068503050F847
:103CF00024506DB137B10021FA480068503040F8C7
:103D0000241005E0681EF7490968503141F8240085
:103D10000021F44800685430015500F063FF284644
:103D2000BDE8F0812DE9F04704460F4690461D4658
:103D3000DDF820900CB9012000E0002050B900BF50
:103D4000502080F31188BFF34F8FBFF36F8F00BFF8
:103D500000BFFEE700F01FFFE24800685430005D3E
:103D600002281AD0DF490968503101EB840001684C
:103D7000B94301600121DB48006854300155B9F1B5
:103D8000000F0AD04846FEF7AEFF4FF08050D649EC
:103D90000860BFF34F8FBFF36F8F00F023FF00F079
:103DA000FAFE2DB1CF480068503050F8240028604A
:103DB000CC4800685430005D022801D0002609E09C
:103DC000C8490968503101EB8400016821EA080103
:103DD000016001260021C34800685430015500F0FD
:103DE00001FF3046BDE8F0872DE9F05F07460D463C
:103DF00016469846DDF828A04FF0010B0DB90120BA
:103E000000E0002050B900BF502080F31188BFF3BC
:103E10004F8FBFF36F8F00BF00BFFEE757B900BFE2
:103E2000502080F31188BFF34F8FBFF36F8F00BF17
:103E300000BFFEE73C4600F0AEFEBAF1000F05D031
:103E400004F1500050F82500CAF8000004F15400B5
:103E500010F8059002214155B8F1050F29D2DFE88D
:103E600008F027030D171C0004F1500050F825003E
:103E7000304304F1500141F825002DE004F15000D9
:103E800050F82500401C04F1500141F8250023E0C2
:103E900004F1500040F825601EE0B9F1020F04D093
:103EA00004F1500040F8256001E04FF0000B13E0F2
:103EB00012E08E48006808B9012000E0002050B9E7
:103EC00000BF502080F31188BFF34F8FBFF36F8F77
:103ED00000BF00BFFEE700BF00BFB9F1010F33D143
:103EE000201DFDF75FFC94F82C10012088408049CC
:103EF000096808437E490860E16A01EB81017D4A57
:103F000002EB8100211DFDF727FCA06A08B9012002
:103F100000E0002050B900BF502080F31188BFF3AB
:103F20004F8FBFF36F8F00BF00BFFEE76D49E06AA0
:103F30000968C96A884207D94FF080506A49086009
:103F4000BFF34F8FBFF36F8F00F04CFE5846BDE8B4
:103F5000F09F2DE9F84F80460D4617469946DDF84B
:103F600028B001200090B8F1000F0AD100BF502006
:103F700080F31188BFF34F8FBFF36F8F00BF00BF77
:103F8000FEE70DB9012000E0002050B900BF50202D
:103F900080F31188BFF34F8FBFF36F8F00BF00BF57
:103FA000FEE700F053FE444600BF5021EFF31180BE
:103FB00081F31188BFF34F8FBFF36F8F00BF0646A9
:103FC000BBF1000F05D004F1500050F82500CBF8EC
:103FD000000004F1540010F805A002214155B9F188
:103FE000050F29D2DFE809F027030D171C0004F1A3
:103FF000500050F82500384304F1500141F82500E5
:104000002DE004F1500050F82500401C04F150014F
:1040100041F8250023E004F1500040F825701EE02F
:10402000BAF1020F04D004F1500040F8257001E00D
:104030000020009013E012E02C48006808B901202D
:1040400000E0002050B900BF502080F31188BFF37A
:104050004F8FBFF36F8F00BF00BFFEE700BF00BFF1
:10406000BAF1010F3CD1A06A08B9012000E000209C
:1040700050B900BF502080F31188BFF34F8FBFF3BA
:104080006F8F00BF00BFFEE71B480068A8B9201D66
:10409000FDF788FB94F82C1001208840144909682A
:1040A000084313490860E16A01EB8101114A02EB00
:1040B0008100211DFDF750FB04E004F118010F48B9
:1040C000FDF74AFB0749E06A0968C96A884207D9CF
:1040D0000B9810B101210B9801600120084908607C
:1040E00000BF0FE04000002004ED00E0540000207D
:1040F00058000020C80100207C000020540200204D
:104100006400002086F3118800BF0098BDE8F88F96
:104110002DE9F04705460E46904655B900BF5020A0
:1041200080F31188BFF34F8FBFF36F8F00BF00BFC5
:10413000FEE70EB9012000E0002050B900BF50207A
:1041400080F31188BFF34F8FBFF36F8F00BF00BFA5
:10415000FEE700F07BFD2C4600BF5021EFF31180FD
:1041600081F31188BFF34F8FBFF36F8F00BF0746F6
:1041700004F1540010F8069002218155001F50F8F8
:104180002600401C04F1500141F82600B9F1010F4E
:104190003DD1A06A08B9012000E0002050B900BF5D
:1041A000502080F31188BFF34F8FBFF36F8F00BF94
:1041B00000BFFEE73E480068A8B9201DFDF7F2FAEF
:1041C00094F82C10012088403A490968084339497D
:1041D0000860E16A01EB8101374A02EB8100211D91
:1041E000FDF7BAFA04E004F118013448FDF7B4FA17
:1041F0003349E06A0968C96A884208D9B8F1000FF2
:1042000002D00120C8F8000001202E49086000BF3C
:1042100087F3118800BFBDE8F0872DE9F04106461D
:104220000C460CB9012000E0002050B900BF50201E
:1042300080F31188BFF34F8FBFF36F8F00BF00BFB4
:10424000FEE716B91E48006800E03046074600F059
:10425000A2FC07F15400005D022805D1002107F1FE
:1042600054000155012500E0002500F0BBFC284664
:10427000BDE8F0812DE9F04106460C46174616B917
:104280000F48006800E03046054600F084FC05F168
:10429000500050F8248050F82400B84305F1500134
:1042A00041F8240000F09EFC4046BDE8F08100008B
:1042B0007C00002058000020C8010020540200208B
:1042C00040000020640000202DE9F04104460D4626
:1042D00016461F464FF0000865602461B5420CD8B1
:1042E000F01BA169884202D34FF0010811E0211DA3
:1042F000FD480068FDF73CFA0BE0BE4204D2BD4227
:1043000002D34FF0010804E0211DF8480068FDF7D2
:104310002FFA4046BDE8F0812DE9FE4304460D46E4
:1043200016461F46DDF828804FF0000954B900BF3B
:10433000502080F31188BFF34F8FBFF36F8F00BF02
:1043400000BFFEE7EA48006810B3009501960294AA
:10435000062D15DAFFF745FB022808D10023424657
:104360006946E3480068FDF76DFB814610E00023D5
:104370001A466946DE480068FDF764FB814607E09F
:1043800000233A466946DA480068FDF7B8FD8146E1
:104390004846BDE8FE832DE9F84334E0D348006881
:1043A000C0680568D1480068C068C468201DFDF772
:1043B000F9F92046216A884794F8280000F00400A3
:1043C00008B3A0694619AE4207D966602461211D71
:1043D000C6480068FDF7CCF915E0002003462A46E0
:1043E000014600902046FFF797FF074657B900BFE8
:1043F000502080F31188BFF34F8FBFF36F8F00BF42
:1044000000BFFEE700BFB9480068006808B9012096
:1044100000E000200028C1D0B448D0F80080B248A5
:104420000068B2490860B048C0F80080BDE8F88371
:1044300070B50446FFF73FF80546AE480068854270
:1044400004D2FFF7A8FF0120206001E000202060D7
:10445000A8480560284670BD70B586B08BE003980B
:104460000028FBDB059C606908B9012000E0002002
:1044700010B9201DFDF796F902A8FFF7D9FF0546F0
:1044800003980A2875D2DFE800F00905073941636F
:1044900006083A4200BF00BF00BF00BF94F82800E2
:1044A00040F0010084F828000498A26981180346AE
:1044B0002A462046FFF708FFF8B12046216A8847C0
:1044C00094F8280000F00400B8B10020009004988F
:1044D000A1694218002319462046FFF71DFF064632
:1044E00056B900BF502080F31188BFF34F8FBFF340
:1044F0006F8F00BF00BFFEE700BF3BE000BF94F836
:10450000280020F0010084F8280033E000BF94F870
:10451000280040F0010084F828000498A061A069F8
:1045200008B1012000E0002050B900BF502080F306
:104530001188BFF34F8FBFF36F8F00BF00BFFEE73F
:10454000A06941192B462A462046FFF7BDFE11E01F
:1045500094F8280000F0020018B9204600F0C8FCCA
:1045600005E094F8280020F0010084F8280001E01C
:10457000FFE700BF00BF002203A95D480068FDF708
:10458000E8FD00287FF46BAF06B070BDF8B50546B6
:104590000F4656480068C068C468201DFDF702F940
:1045A00094F8280000F00400E8B1A06941192B46F6
:1045B0003A462046FFF788FED8B1002003462A4637
:1045C000014600902046FFF7A7FE064656B900BFF9
:1045D000502080F31188BFF34F8FBFF36F8F00BF60
:1045E00000BFFEE705E094F8280020F0010084F801
:1045F00028002046216A8847F8BDF8B505460C46D4
:10460000FEF7AFFB6846FFF713FF0646009820BB96
:1046100044B9B54206D8FEF7F6FA31462846FFF708
:10462000B5FF1CE03CB130480068006808B90120C3
:1046300000E000200446A91B22462D480068FEF732
:1046400086F8FEF7E0FA50B94FF080502A4908602A
:10465000BFF34F8FBFF36F8F01E0FEF7D4FAF8BDC1
:104660000146224A126812680AB9012200E00022BB
:104670000A600A6822B91D4A1268D268106800E010
:104680000020704708B500BF6846FFF7E9FF044601
:1046900020460099FFF7B1FFFFF7DEFEF4E710B503
:1046A00000F079FA12480068D0B91448FDF744F8D0
:1046B0001348FDF741F811480C49086010480A49B1
:1046C000086000220C210A20FDF7DEF80849086086
:1046D0000846006820B10BA105480068FEF711F8F4
:1046E00000F080FA10BD000084000020800000204F
:1046F000880000209000002004ED00E090020020DF
:10470000A4020020546D7251000000001CB500246A
:10471000FFF7C5FF9C48006858B19C480221002360
:104720004FF48272CDE9001099A19B48FEF706F97B
:10473000044654B900BF502080F31188BFF34F8F57
:10474000BFF36F8F00BF00BFFEE720461CBD2DE901
:10475000F04706460D4617469846DDE908940DB128
:10476000012000E0002050B900BF502080F31188E4
:10477000BFF34F8FBFF36F8F00BF00BFFEE78CB159
:10478000FFF78DFF2660A561C4F81C80C4F8209057
:10479000201DFCF7DEFF2FB194F8280040F0040044
:1047A00084F82800BDE8F0872DE9FC4705460E4651
:1047B00017469846DDF828902C2000F0F0FA0446C1
:1047C00054B1002084F8280043463A463146284632
:1047D000CDE90094FFF7BBFF2046BDE8FC876B489E
:1047E000006808B1012000E0002050B900BF50204F
:1047F00080F31188BFF34F8FBFF36F8F00BF00BFEF
:10480000FEE762480068704701460A4651B900BF9A
:10481000502080F31188BFF34F8FBFF36F8F00BF1D
:1048200000BFFEE79069704770B505460E462C46FE
:1048300055B900BF502080F31188BFF34F8FBFF3ED
:104840006F8F00BF00BFFEE700F0A5F936B194F806
:10485000280040F0040084F8280005E094F82800BF
:1048600020F0040084F8280000F0BCF970BD70B599
:104870000446264654B900BF502080F31188BFF388
:104880004F8FBFF36F8F00BF00BFFEE700F083F9CB
:1048900096F8280000F0040008B9002500E0012582
:1048A00000F0A0F9284670BD10B501460A4651B97E
:1048B00000BF502383F31188BFF34F8FBFF36F8F77
:1048C00000BF00BFFEE7506810BD01460A4651B95F
:1048D00000BF502080F31188BFF34F8FBFF36F8F5D
:1048E00000BF00BFFEE71068704770B5044626465B
:1048F00054B900BF502080F31188BFF34F8FBFF32E
:104900006F8F00BF00BFFEE700F045F996F8280062
:1049100000F0010008B9002500E0012500F062F96F
:10492000284670BD70B50446254654B900BF5020D6
:1049300080F31188BFF34F8FBFF36F8F00BF00BFAD
:10494000FEE700F028F9EE6900F04CF9304670BD42
:1049500070B504460D46264654B900BF502080F37A
:104960001188BFF34F8FBFF36F8F00BF00BFFEE70B
:1049700000F011F9F56100F035F970BD0146486AA3
:104980007047416270470000880000208C000020C2
:10499000546D72205376630085460008C64800684F
:1049A000401C08B9012000E0002050B900BF502091
:1049B00080F31188BFF34F8FBFF36F8F00BF00BF2D
:1049C000FEE700BF502080F31188BFF34F8FBFF385
:1049D0006F8F00BF00BFFEE7001F4FF080730360C2
:1049E000001F21F001030360001FB44B0360143863
:1049F0000260001F6FF00203036020387047002040
:104A00004FF0E02108618861AD4800684FF47A7189
:104A1000B0FBF1F0401E4FF0E02148610720086133
:104A200070471CB5A7480068A749884201D00120FB
:104A300000E0002050B900BF502080F31188BFF380
:104A40004F8FBFF36F8F00BF00BFFEE79D48006828
:104A50009D49491E884201D0012000E0002050B944
:104A600000BF502080F31188BFF34F8FBFF36F8FCB
:104A700000BF00BFFEE79549084600780190FF207F
:104A80000A4610700846007800909DF8000000F07B
:104A9000F0009DF80020904201D1012000E00020AC
:104AA00050B900BF502080F31188BFF34F8FBFF380
:104AB0006F8F00BF00BFFEE79DF8000000F05000C0
:104AC000834A10700720834A106009E0814800681B
:104AD000401E804A10609DF800004006000E0090C5
:104AE0009DF8000000F080008028EFD07948006831
:104AF000C0F10700042801D1012000E0002050B9D6
:104B000000BF502080F31188BFF34F8FBFF36F8F2A
:104B100000BF00BFFEE76F48006800026D4A1060EA
:104B20001046008800F4E0601060684A0198107038
:104B300064482030006840F4700062492031086009
:104B40000846006840F070400860FFF758FF0020FA
:104B500059490860FBF78CFB5F48006840F0404013
:104B60005D490860FBF770FB00201CBD52480068DF
:104B7000B0F57A7F01D1012000E0002050B900BFDC
:104B8000502080F31188BFF34F8FBFF36F8F00BFAA
:104B900000BFFEE7704700BF502080F31188BFF3CD
:104BA0004F8FBFF36F8F00BF43480068401C4249DE
:104BB000086008460068012813D14248001D0068BB
:104BC000C0B208B9012000E0002050B900BF502059
:104BD00080F31188BFF34F8FBFF36F8F00BF00BF0B
:104BE000FEE770473448006850B900BF502080F39A
:104BF0001188BFF34F8FBFF36F8F00BF00BFFEE779
:104C00002D480068401E2C4908600846006820B9FD
:104C1000002080F3118800BF00BF704710B500BFAF
:104C2000502080F31188BFF34F8FBFF36F8F00BF09
:104C3000FDF736FF20B14FF080502249091D086072
:104C400000BF002080F3118800BF10BD70B5FBF7D6
:104C500047FB0446102C16D304F1E02090F8F053E3
:104C60001B480078854201DB012000E0002050B99C
:104C700000BF502080F31188BFF34F8FBFF36F8FB9
:104C800000BF00BFFEE70F480C30006800F4E06092
:104C900010490968884201D8012000E0002050B97D
:104CA00000BF502080F31188BFF34F8FBFF36F8F89
:104CB00000BF00BFFEE770BD940000209D490008C2
:104CC0001000002000ED00E071C20F4100E400E0A0
:104CD000980000209C00002034EF00E010B5014651
:104CE000C64800E0006803688B42FBD30246436875
:104CF00013448B4204D143684C682344436001460B
:104D00000A464B6813440468A34211D1BC4C0368A3
:104D10002468A34208D04B680468646823444B604D
:104D200003681B680B6005E0B54B1B680B6001E076
:104D300003680B60884200D0016010BD30B54FF4AD
:104D40009633B04800F007042CB1C01D20F00700D6
:104D5000AC4C041B1B1B0246A84C22600024A74D30
:104D60006C60D018083820F00700A54C20600024A3
:104D7000A34D2D686C60A24D2D682C601146441A1D
:104D80004C609F4C24680C609F4D4C682C609F4D7C
:104D90004C682C604FF000449D4D2C6030BD2DE9D7
:104DA000F04104464FF00008FDF7DBFF944800682F
:104DB00008B9FFF7C3FF96480068204000287DD15E
:104DC0003CB304F10800A04223D9083404F00700E2
:104DD00000B304F00700C0F108002044A04216D937
:104DE00004F00700C0F10800044404F0070008B90B
:104DF000012000E0002068B900BF502080F3118836
:104E0000BFF34F8FBFF36F8F00BF00BFFEE70024DB
:104E100000E00024002C54D07C480068844250D824
:104E2000764E3046056801E02E462D686868A0423F
:104E300002D228680028F7D171480068854240D026
:104E4000306800F10808286830606868001B102886
:104E500019D92F1907F0070008B9012000E0002038
:104E600050B900BF502080F31188BFF34F8FBFF3BC
:104E70006F8F00BF00BFFEE76868001B78606C6042
:104E80003846FFF72BFF614968680968081A5F49CF
:104E90000860084600685C490968884203D25B489C
:104EA0000068594908605A49686809680843686099
:104EB0000020286057480068401C00E001E0554988
:104EC0000860FDF7A0FE08F0070008B9012000E027
:104ED000002050B900BF502080F31188BFF34F8FDE
:104EE000BFF36F8F00BF00BFFEE74046BDE8F08113
:104EF00070B506463546002E44D0083D2C46444940
:104F000060680968084008B1012000E0002050B93D
:104F100000BF502080F31188BFF34F8FBFF36F8F16
:104F200000BF00BFFEE7206808B9012000E00020B4
:104F300050B900BF502080F31188BFF34F8FBFF3EB
:104F40006F8F00BF00BFFEE7314960680968084005
:104F5000C0B12068B0B92E496068096888436060B4
:104F6000FDF7FFFE29496068096808442749086081
:104F70002046FFF7B3FE28480068401C2649086019
:104F8000FDF741FE70BD2148006870471E4800686B
:104F9000704770472DE9F04104464FF000080026A5
:104FA000771EFDF7DEFE154805687DB100BF08F1EC
:104FB00001086868B04200D96E686868B84200D2DB
:104FC0006F682D680E4800688542F0D1FDF71BFE22
:104FD0006660A760C4F80C80FFF7DDFD0B48006831
:104FE00020600C48006860610B480068A0610648BA
:104FF00000682061FFF7F6FDBDE8F081A000002009
:10500000A8000020B8020020B0000020AC00002062
:10501000BC000020B4000020B80000207047032A24
:1050200040F2308010F0030C00F0158011F8013BC5
:10503000BCF1020F624498BF11F801CB00F8013BAC
:1050400038BF11F8013BA2F1040298BF00F801CB70
:1050500038BF00F8013B11F0030300F03180083A3B
:10506000C0F0088051F8043B083A51F804CBA0E89E
:105070000810F5E7121D5CBF51F8043B40F8043BF3
:10508000AFF30080D20724BF11F8013B11F801CB28
:1050900048BF11F8012B24BF00F8013B00F801CBF9
:1050A00048BF00F8012B704702F0FF0343EA0322D8
:1050B00042EA024200F038B87047704770477047C4
:1050C00010B5203AC0F00B80B1E81850203AA0E8A3
:1050D0001850B1E81850A0E81850BFF4F5AF5FEAD7
:1050E000027C24BFB1E81850A0E8185044BF18C98A
:1050F00018C0BDE810405FEA827C24BF51F8043B31
:1051000040F8043B08BF7047D20728BF31F8023B84
:1051100048BF11F8012B28BF20F8023B48BF00F818
:10512000012B70474FF000020429C0F0128010F0EC
:10513000030C00F01B80CCF1040CBCF1020F18BF73
:1051400000F8012BA8BF20F8022BA1EB0C0100F006
:105150000DB85FEAC17C24BF00F8012B00F8012BD9
:1051600048BF00F8012B70474FF0000200B513460E
:1051700094469646203922BFA0E80C50A0E80C5077
:10518000B1F12001BFF4F7AF090728BFA0E80C5028
:1051900048BF0CC05DF804EB890028BF40F8042B21
:1051A00008BF704748BF20F8022B11F0804F18BF8E
:1051B00000F8012B7047754600F02CF8AE4605004C
:1051C0006946534620F00700854618B020B5FBF726
:1051D0008FFBBDE820404FF000064FF000074FF076
:1051E00000084FF0000B21F00701AC46ACE8C00905
:1051F000ACE8C009ACE8C009ACE8C0098D4670470E
:1052000010B50446AFF300802046BDE81040FBF720
:1052100004B8000000487047B82E01204FF04070DD
:10522000E1EE100A7047000048520008000000201C
:10523000C0000000C401000808530008C00000209E
:1052400058340100E00100080000000000000000E8
:105250000000000000000000007A030A00000000C7
:105260000000000001020304060708090000000016
:105270000000000000000000000001020304010221
:1052800003040607080900000000000000000000F9
:10529000000000000000000000000000000000000E
:1052A00000000000000000000000000000000000FE
:1052B00000000000000000000000000000000000EE
:1052C00004000000000000000000000000000000DA
:1052D000000000000000000000000000AAAAAAAA26
:1052E00000000000000000000000000000000000BE
:1052F00000000000000000000000000000000000AE
:085300000000000000000000A5
:040000050800018965
:00000001FF
